{
  "contractName": "MyNFT",
  "abi": [
    {
      "inputs": [],
      "stateMutability": "nonpayable",
      "type": "constructor"
    },
    {
      "anonymous": false,
      "inputs": [
        {
          "indexed": true,
          "internalType": "address",
          "name": "owner",
          "type": "address"
        },
        {
          "indexed": true,
          "internalType": "address",
          "name": "approved",
          "type": "address"
        },
        {
          "indexed": true,
          "internalType": "uint256",
          "name": "tokenId",
          "type": "uint256"
        }
      ],
      "name": "Approval",
      "type": "event"
    },
    {
      "anonymous": false,
      "inputs": [
        {
          "indexed": true,
          "internalType": "address",
          "name": "owner",
          "type": "address"
        },
        {
          "indexed": true,
          "internalType": "address",
          "name": "operator",
          "type": "address"
        },
        {
          "indexed": false,
          "internalType": "bool",
          "name": "approved",
          "type": "bool"
        }
      ],
      "name": "ApprovalForAll",
      "type": "event"
    },
    {
      "anonymous": false,
      "inputs": [
        {
          "indexed": false,
          "internalType": "uint256",
          "name": "_fromTokenId",
          "type": "uint256"
        },
        {
          "indexed": false,
          "internalType": "uint256",
          "name": "_toTokenId",
          "type": "uint256"
        }
      ],
      "name": "BatchMetadataUpdate",
      "type": "event"
    },
    {
      "anonymous": false,
      "inputs": [
        {
          "indexed": false,
          "internalType": "uint256",
          "name": "_tokenId",
          "type": "uint256"
        }
      ],
      "name": "MetadataUpdate",
      "type": "event"
    },
    {
      "anonymous": false,
      "inputs": [
        {
          "indexed": true,
          "internalType": "address",
          "name": "from",
          "type": "address"
        },
        {
          "indexed": true,
          "internalType": "address",
          "name": "to",
          "type": "address"
        },
        {
          "indexed": true,
          "internalType": "uint256",
          "name": "tokenId",
          "type": "uint256"
        }
      ],
      "name": "Transfer",
      "type": "event"
    },
    {
      "inputs": [
        {
          "internalType": "address",
          "name": "to",
          "type": "address"
        },
        {
          "internalType": "uint256",
          "name": "tokenId",
          "type": "uint256"
        }
      ],
      "name": "approve",
      "outputs": [],
      "stateMutability": "nonpayable",
      "type": "function"
    },
    {
      "inputs": [
        {
          "internalType": "address",
          "name": "owner",
          "type": "address"
        }
      ],
      "name": "balanceOf",
      "outputs": [
        {
          "internalType": "uint256",
          "name": "",
          "type": "uint256"
        }
      ],
      "stateMutability": "view",
      "type": "function",
      "constant": true
    },
    {
      "inputs": [
        {
          "internalType": "uint256",
          "name": "tokenId",
          "type": "uint256"
        }
      ],
      "name": "getApproved",
      "outputs": [
        {
          "internalType": "address",
          "name": "",
          "type": "address"
        }
      ],
      "stateMutability": "view",
      "type": "function",
      "constant": true
    },
    {
      "inputs": [
        {
          "internalType": "address",
          "name": "owner",
          "type": "address"
        },
        {
          "internalType": "address",
          "name": "operator",
          "type": "address"
        }
      ],
      "name": "isApprovedForAll",
      "outputs": [
        {
          "internalType": "bool",
          "name": "",
          "type": "bool"
        }
      ],
      "stateMutability": "view",
      "type": "function",
      "constant": true
    },
    {
      "inputs": [],
      "name": "name",
      "outputs": [
        {
          "internalType": "string",
          "name": "",
          "type": "string"
        }
      ],
      "stateMutability": "view",
      "type": "function",
      "constant": true
    },
    {
      "inputs": [
        {
          "internalType": "uint256",
          "name": "tokenId",
          "type": "uint256"
        }
      ],
      "name": "ownerOf",
      "outputs": [
        {
          "internalType": "address",
          "name": "",
          "type": "address"
        }
      ],
      "stateMutability": "view",
      "type": "function",
      "constant": true
    },
    {
      "inputs": [
        {
          "internalType": "address",
          "name": "from",
          "type": "address"
        },
        {
          "internalType": "address",
          "name": "to",
          "type": "address"
        },
        {
          "internalType": "uint256",
          "name": "tokenId",
          "type": "uint256"
        }
      ],
      "name": "safeTransferFrom",
      "outputs": [],
      "stateMutability": "nonpayable",
      "type": "function"
    },
    {
      "inputs": [
        {
          "internalType": "address",
          "name": "from",
          "type": "address"
        },
        {
          "internalType": "address",
          "name": "to",
          "type": "address"
        },
        {
          "internalType": "uint256",
          "name": "tokenId",
          "type": "uint256"
        },
        {
          "internalType": "bytes",
          "name": "data",
          "type": "bytes"
        }
      ],
      "name": "safeTransferFrom",
      "outputs": [],
      "stateMutability": "nonpayable",
      "type": "function"
    },
    {
      "inputs": [
        {
          "internalType": "address",
          "name": "operator",
          "type": "address"
        },
        {
          "internalType": "bool",
          "name": "approved",
          "type": "bool"
        }
      ],
      "name": "setApprovalForAll",
      "outputs": [],
      "stateMutability": "nonpayable",
      "type": "function"
    },
    {
      "inputs": [
        {
          "internalType": "bytes4",
          "name": "interfaceId",
          "type": "bytes4"
        }
      ],
      "name": "supportsInterface",
      "outputs": [
        {
          "internalType": "bool",
          "name": "",
          "type": "bool"
        }
      ],
      "stateMutability": "view",
      "type": "function",
      "constant": true
    },
    {
      "inputs": [],
      "name": "symbol",
      "outputs": [
        {
          "internalType": "string",
          "name": "",
          "type": "string"
        }
      ],
      "stateMutability": "view",
      "type": "function",
      "constant": true
    },
    {
      "inputs": [],
      "name": "tokenCounter",
      "outputs": [
        {
          "internalType": "uint256",
          "name": "",
          "type": "uint256"
        }
      ],
      "stateMutability": "view",
      "type": "function",
      "constant": true
    },
    {
      "inputs": [
        {
          "internalType": "uint256",
          "name": "tokenId",
          "type": "uint256"
        }
      ],
      "name": "tokenURI",
      "outputs": [
        {
          "internalType": "string",
          "name": "",
          "type": "string"
        }
      ],
      "stateMutability": "view",
      "type": "function",
      "constant": true
    },
    {
      "inputs": [
        {
          "internalType": "address",
          "name": "from",
          "type": "address"
        },
        {
          "internalType": "address",
          "name": "to",
          "type": "address"
        },
        {
          "internalType": "uint256",
          "name": "tokenId",
          "type": "uint256"
        }
      ],
      "name": "transferFrom",
      "outputs": [],
      "stateMutability": "nonpayable",
      "type": "function"
    },
    {
      "inputs": [
        {
          "internalType": "address",
          "name": "recipient",
          "type": "address"
        },
        {
          "internalType": "string",
          "name": "tokenURI",
          "type": "string"
        }
      ],
      "name": "mintNFT",
      "outputs": [
        {
          "internalType": "uint256",
          "name": "",
          "type": "uint256"
        }
      ],
      "stateMutability": "nonpayable",
      "type": "function"
    }
  ],
  "bytecode": "0x60806040523480156200001157600080fd5b5060405180604001604052806005815260200164135e53919560da1b8152506040518060400160405280600381526020016213919560ea1b81525081600090816200005d91906200011f565b5060016200006c82826200011f565b5050600060075550620001eb565b634e487b7160e01b600052604160045260246000fd5b600181811c90821680620000a557607f821691505b602082108103620000c657634e487b7160e01b600052602260045260246000fd5b50919050565b601f8211156200011a57600081815260208120601f850160051c81016020861015620000f55750805b601f850160051c820191505b81811015620001165782815560010162000101565b5050505b505050565b81516001600160401b038111156200013b576200013b6200007a565b62000153816200014c845462000090565b84620000cc565b602080601f8311600181146200018b5760008415620001725750858301515b600019600386901b1c1916600185901b17855562000116565b600085815260208120601f198616915b82811015620001bc578886015182559484019460019091019084016200019b565b5085821015620001db5787850151600019600388901b60f8161c191681555b5050505050600190811b01905550565b61168980620001fb6000396000f3fe608060405234801561001057600080fd5b50600436106100f55760003560e01c806370a0823111610097578063c87b56dd11610066578063c87b56dd146101ff578063d082e38114610212578063e985e9c51461021b578063eacabe141461022e57600080fd5b806370a08231146101b057806395d89b41146101d1578063a22cb465146101d9578063b88d4fde146101ec57600080fd5b8063095ea7b3116100d3578063095ea7b31461016257806323b872dd1461017757806342842e0e1461018a5780636352211e1461019d57600080fd5b806301ffc9a7146100fa57806306fdde0314610122578063081812fc14610137575b600080fd5b61010d61010836600461106e565b610241565b60405190151581526020015b60405180910390f35b61012a61026c565b60405161011991906110db565b61014a6101453660046110ee565b6102fe565b6040516001600160a01b039091168152602001610119565b610175610170366004611123565b610325565b005b61017561018536600461114d565b61043f565b61017561019836600461114d565b610470565b61014a6101ab3660046110ee565b61048b565b6101c36101be366004611189565b6104eb565b604051908152602001610119565b61012a610571565b6101756101e73660046111a4565b610580565b6101756101fa36600461126c565b61058f565b61012a61020d3660046110ee565b6105c7565b6101c360075481565b61010d6102293660046112e8565b6106d7565b6101c361023c36600461131b565b610705565b60006001600160e01b03198216632483248360e11b148061026657506102668261073f565b92915050565b60606000805461027b9061137d565b80601f01602080910402602001604051908101604052809291908181526020018280546102a79061137d565b80156102f45780601f106102c9576101008083540402835291602001916102f4565b820191906000526020600020905b8154815290600101906020018083116102d757829003601f168201915b5050505050905090565b60006103098261078f565b506000908152600460205260409020546001600160a01b031690565b60006103308261048b565b9050806001600160a01b0316836001600160a01b0316036103a25760405162461bcd60e51b815260206004820152602160248201527f4552433732313a20617070726f76616c20746f2063757272656e74206f776e656044820152603960f91b60648201526084015b60405180910390fd5b336001600160a01b03821614806103be57506103be81336106d7565b6104305760405162461bcd60e51b815260206004820152603d60248201527f4552433732313a20617070726f76652063616c6c6572206973206e6f7420746f60448201527f6b656e206f776e6572206f7220617070726f76656420666f7220616c6c0000006064820152608401610399565b61043a83836107f1565b505050565b610449338261085f565b6104655760405162461bcd60e51b8152600401610399906113b7565b61043a8383836108bd565b61043a8383836040518060200160405280600081525061058f565b6000818152600260205260408120546001600160a01b0316806102665760405162461bcd60e51b8152602060048201526018602482015277115490cdcc8c4e881a5b9d985b1a59081d1bdad95b88125160421b6044820152606401610399565b60006001600160a01b0382166105555760405162461bcd60e51b815260206004820152602960248201527f4552433732313a2061646472657373207a65726f206973206e6f7420612076616044820152683634b21037bbb732b960b91b6064820152608401610399565b506001600160a01b031660009081526003602052604090205490565b60606001805461027b9061137d565b61058b338383610a21565b5050565b610599338361085f565b6105b55760405162461bcd60e51b8152600401610399906113b7565b6105c184848484610aef565b50505050565b60606105d28261078f565b600082815260066020526040812080546105eb9061137d565b80601f01602080910402602001604051908101604052809291908181526020018280546106179061137d565b80156106645780601f1061063957610100808354040283529160200191610664565b820191906000526020600020905b81548152906001019060200180831161064757829003601f168201915b50505050509050600061068260408051602081019091526000815290565b90508051600003610694575092915050565b8151156106c65780826040516020016106ae929190611404565b60405160208183030381529060405292505050919050565b6106cf84610b22565b949350505050565b6001600160a01b03918216600090815260056020908152604080832093909416825291909152205460ff1690565b6007546000906107158482610b96565b61071f8184610d21565b6001600760008282546107329190611433565b9091555090949350505050565b60006001600160e01b031982166380ac58cd60e01b148061077057506001600160e01b03198216635b5e139f60e01b145b8061026657506301ffc9a760e01b6001600160e01b0319831614610266565b6000818152600260205260409020546001600160a01b03166107ee5760405162461bcd60e51b8152602060048201526018602482015277115490cdcc8c4e881a5b9d985b1a59081d1bdad95b88125160421b6044820152606401610399565b50565b600081815260046020526040902080546001600160a01b0319166001600160a01b03841690811790915581906108268261048b565b6001600160a01b03167f8c5be1e5ebec7d5bd14f71427d1e84f3dd0314c0f7b2291e5b200ac8c7c3b92560405160405180910390a45050565b60008061086b8361048b565b9050806001600160a01b0316846001600160a01b03161480610892575061089281856106d7565b806106cf5750836001600160a01b03166108ab846102fe565b6001600160a01b031614949350505050565b826001600160a01b03166108d08261048b565b6001600160a01b0316146108f65760405162461bcd60e51b815260040161039990611454565b6001600160a01b0382166109585760405162461bcd60e51b8152602060048201526024808201527f4552433732313a207472616e7366657220746f20746865207a65726f206164646044820152637265737360e01b6064820152608401610399565b826001600160a01b031661096b8261048b565b6001600160a01b0316146109915760405162461bcd60e51b815260040161039990611454565b600081815260046020908152604080832080546001600160a01b03199081169091556001600160a01b0387811680865260038552838620805460001901905590871680865283862080546001019055868652600290945282852080549092168417909155905184937fddf252ad1be2c89b69c2b068fc378daa952ba7f163c4a11628f55a4df523b3ef91a4505050565b816001600160a01b0316836001600160a01b031603610a825760405162461bcd60e51b815260206004820152601960248201527f4552433732313a20617070726f766520746f2063616c6c6572000000000000006044820152606401610399565b6001600160a01b03838116600081815260056020908152604080832094871680845294825291829020805460ff191686151590811790915591519182527f17307eab39ab6107e8899845ad3d59bd9653f200f220920489ca2b5937696c31910160405180910390a3505050565b610afa8484846108bd565b610b0684848484610dec565b6105c15760405162461bcd60e51b815260040161039990611499565b6060610b2d8261078f565b6000610b4460408051602081019091526000815290565b90506000815111610b645760405180602001604052806000815250610b8f565b80610b6e84610eed565b604051602001610b7f929190611404565b6040516020818303038152906040525b9392505050565b6001600160a01b038216610bec5760405162461bcd60e51b815260206004820181905260248201527f4552433732313a206d696e7420746f20746865207a65726f20616464726573736044820152606401610399565b6000818152600260205260409020546001600160a01b031615610c515760405162461bcd60e51b815260206004820152601c60248201527f4552433732313a20746f6b656e20616c7265616479206d696e746564000000006044820152606401610399565b6000818152600260205260409020546001600160a01b031615610cb65760405162461bcd60e51b815260206004820152601c60248201527f4552433732313a20746f6b656e20616c7265616479206d696e746564000000006044820152606401610399565b6001600160a01b038216600081815260036020908152604080832080546001019055848352600290915280822080546001600160a01b0319168417905551839291907fddf252ad1be2c89b69c2b068fc378daa952ba7f163c4a11628f55a4df523b3ef908290a45050565b6000828152600260205260409020546001600160a01b0316610d9c5760405162461bcd60e51b815260206004820152602e60248201527f45524337323155524953746f726167653a2055524920736574206f66206e6f6e60448201526d32bc34b9ba32b73a103a37b5b2b760911b6064820152608401610399565b6000828152600660205260409020610db48282611539565b506040518281527ff8e1a15aba9398e019f0b49df1a4fde98ee17ae345cb5f6b5e2c27f5033e8ce79060200160405180910390a15050565b60006001600160a01b0384163b15610ee257604051630a85bd0160e11b81526001600160a01b0385169063150b7a0290610e309033908990889088906004016115f9565b6020604051808303816000875af1925050508015610e6b575060408051601f3d908101601f19168201909252610e6891810190611636565b60015b610ec8573d808015610e99576040519150601f19603f3d011682016040523d82523d6000602084013e610e9e565b606091505b508051600003610ec05760405162461bcd60e51b815260040161039990611499565b805181602001fd5b6001600160e01b031916630a85bd0160e11b1490506106cf565b506001949350505050565b60606000610efa83610f80565b600101905060008167ffffffffffffffff811115610f1a57610f1a6111e0565b6040519080825280601f01601f191660200182016040528015610f44576020820181803683370190505b5090508181016020015b600019016f181899199a1a9b1b9c1cb0b131b232b360811b600a86061a8153600a8504945084610f4e57509392505050565b60008072184f03e93ff9f4daa797ed6e38ed64bf6a1f0160401b8310610fbf5772184f03e93ff9f4daa797ed6e38ed64bf6a1f0160401b830492506040015b6d04ee2d6d415b85acef81000000008310610feb576d04ee2d6d415b85acef8100000000830492506020015b662386f26fc10000831061100957662386f26fc10000830492506010015b6305f5e1008310611021576305f5e100830492506008015b612710831061103557612710830492506004015b60648310611047576064830492506002015b600a83106102665760010192915050565b6001600160e01b0319811681146107ee57600080fd5b60006020828403121561108057600080fd5b8135610b8f81611058565b60005b838110156110a657818101518382015260200161108e565b50506000910152565b600081518084526110c781602086016020860161108b565b601f01601f19169290920160200192915050565b602081526000610b8f60208301846110af565b60006020828403121561110057600080fd5b5035919050565b80356001600160a01b038116811461111e57600080fd5b919050565b6000806040838503121561113657600080fd5b61113f83611107565b946020939093013593505050565b60008060006060848603121561116257600080fd5b61116b84611107565b925061117960208501611107565b9150604084013590509250925092565b60006020828403121561119b57600080fd5b610b8f82611107565b600080604083850312156111b757600080fd5b6111c083611107565b9150602083013580151581146111d557600080fd5b809150509250929050565b634e487b7160e01b600052604160045260246000fd5b600067ffffffffffffffff80841115611211576112116111e0565b604051601f8501601f19908116603f01168101908282118183101715611239576112396111e0565b8160405280935085815286868601111561125257600080fd5b858560208301376000602087830101525050509392505050565b6000806000806080858703121561128257600080fd5b61128b85611107565b935061129960208601611107565b925060408501359150606085013567ffffffffffffffff8111156112bc57600080fd5b8501601f810187136112cd57600080fd5b6112dc878235602084016111f6565b91505092959194509250565b600080604083850312156112fb57600080fd5b61130483611107565b915061131260208401611107565b90509250929050565b6000806040838503121561132e57600080fd5b61133783611107565b9150602083013567ffffffffffffffff81111561135357600080fd5b8301601f8101851361136457600080fd5b611373858235602084016111f6565b9150509250929050565b600181811c9082168061139157607f821691505b6020821081036113b157634e487b7160e01b600052602260045260246000fd5b50919050565b6020808252602d908201527f4552433732313a2063616c6c6572206973206e6f7420746f6b656e206f776e6560408201526c1c881bdc88185c1c1c9bdd9959609a1b606082015260800190565b6000835161141681846020880161108b565b83519083019061142a81836020880161108b565b01949350505050565b8082018082111561026657634e487b7160e01b600052601160045260246000fd5b60208082526025908201527f4552433732313a207472616e736665722066726f6d20696e636f72726563742060408201526437bbb732b960d91b606082015260800190565b60208082526032908201527f4552433732313a207472616e7366657220746f206e6f6e20455243373231526560408201527131b2b4bb32b91034b6b83632b6b2b73a32b960711b606082015260800190565b601f82111561043a57600081815260208120601f850160051c810160208610156115125750805b601f850160051c820191505b818110156115315782815560010161151e565b505050505050565b815167ffffffffffffffff811115611553576115536111e0565b61156781611561845461137d565b846114eb565b602080601f83116001811461159c57600084156115845750858301515b600019600386901b1c1916600185901b178555611531565b600085815260208120601f198616915b828110156115cb578886015182559484019460019091019084016115ac565b50858210156115e95787850151600019600388901b60f8161c191681555b5050505050600190811b01905550565b6001600160a01b038581168252841660208201526040810183905260806060820181905260009061162c908301846110af565b9695505050505050565b60006020828403121561164857600080fd5b8151610b8f8161105856fea26469706673582212208054acd236fc6cc7f78491395352ab20f643c678265bd0fd54d9c2c2ac2e74e664736f6c63430008130033",
  "immutableReferences": {},
  "source": "// SPDX-License-Identifier: MIT\r\npragma solidity ^0.8.19;\r\n\r\nimport \"@openzeppelin/contracts/token/ERC721/extensions/ERC721URIStorage.sol\";\r\n\r\ncontract MyNFT is ERC721URIStorage {\r\n    uint256 public tokenCounter;\r\n\r\n    constructor() ERC721(\"MyNFT\", \"NFT\") {\r\n        tokenCounter = 0;\r\n    }\r\n\r\n    function mintNFT(address recipient, string memory tokenURI) public returns (uint256) {\r\n        uint256 newItemId = tokenCounter;\r\n        _mint(recipient, newItemId);\r\n        _setTokenURI(newItemId, tokenURI);\r\n        tokenCounter += 1;\r\n        return newItemId;\r\n    }\r\n}\r\n",
  "sourcePath": "D:\\myDapp\\contracts\\MyNFT.sol",
  "compiler": {
    "name": "solc",
    "version": "0.8.19+commit.7dd6d404.Emscripten.clang"
  },
  "schemaVersion": "3.4.16",
  "updatedAt": "2025-06-11T05:28:19.947Z",
  "networkType": "ethereum",
  "devdoc": {
    "events": {
      "Approval(address,address,uint256)": {
        "details": "Emitted when `owner` enables `approved` to manage the `tokenId` token."
      },
      "ApprovalForAll(address,address,bool)": {
        "details": "Emitted when `owner` enables or disables (`approved`) `operator` to manage all of its assets."
      },
      "BatchMetadataUpdate(uint256,uint256)": {
        "details": "This event emits when the metadata of a range of tokens is changed. So that the third-party platforms such as NFT market could timely update the images and related attributes of the NFTs."
      },
      "MetadataUpdate(uint256)": {
        "details": "This event emits when the metadata of a token is changed. So that the third-party platforms such as NFT market could timely update the images and related attributes of the NFT."
      },
      "Transfer(address,address,uint256)": {
        "details": "Emitted when `tokenId` token is transferred from `from` to `to`."
      }
    },
    "kind": "dev",
    "methods": {
      "approve(address,uint256)": {
        "details": "See {IERC721-approve}."
      },
      "balanceOf(address)": {
        "details": "See {IERC721-balanceOf}."
      },
      "getApproved(uint256)": {
        "details": "See {IERC721-getApproved}."
      },
      "isApprovedForAll(address,address)": {
        "details": "See {IERC721-isApprovedForAll}."
      },
      "name()": {
        "details": "See {IERC721Metadata-name}."
      },
      "ownerOf(uint256)": {
        "details": "See {IERC721-ownerOf}."
      },
      "safeTransferFrom(address,address,uint256)": {
        "details": "See {IERC721-safeTransferFrom}."
      },
      "safeTransferFrom(address,address,uint256,bytes)": {
        "details": "See {IERC721-safeTransferFrom}."
      },
      "setApprovalForAll(address,bool)": {
        "details": "See {IERC721-setApprovalForAll}."
      },
      "supportsInterface(bytes4)": {
        "details": "See {IERC165-supportsInterface}"
      },
      "symbol()": {
        "details": "See {IERC721Metadata-symbol}."
      },
      "tokenURI(uint256)": {
        "details": "See {IERC721Metadata-tokenURI}."
      },
      "transferFrom(address,address,uint256)": {
        "details": "See {IERC721-transferFrom}."
      }
    },
    "version": 1
  },
  "userdoc": {
    "kind": "user",
    "methods": {},
    "version": 1
  }
}