{
  "contractName": "TestContract",
  "abi": [
    {
      "anonymous": false,
      "inputs": [
        {
          "indexed": false,
          "internalType": "address",
          "name": "sender",
          "type": "address"
        },
        {
          "indexed": false,
          "internalType": "uint256",
          "name": "playerId",
          "type": "uint256"
        },
        {
          "indexed": false,
          "internalType": "string",
          "name": "wallet",
          "type": "string"
        },
        {
          "indexed": false,
          "internalType": "uint256",
          "name": "coin",
          "type": "uint256"
        },
        {
          "indexed": false,
          "internalType": "uint256",
          "name": "character",
          "type": "uint256"
        }
      ],
      "name": "ScoreSubmitted",
      "type": "event"
    },
    {
      "inputs": [],
      "name": "ethPrice",
      "outputs": [
        {
          "internalType": "uint256",
          "name": "",
          "type": "uint256"
        }
      ],
      "stateMutability": "view",
      "type": "function",
      "constant": true
    },
    {
      "inputs": [
        {
          "internalType": "uint256",
          "name": "",
          "type": "uint256"
        }
      ],
      "name": "playerAddresses",
      "outputs": [
        {
          "internalType": "address",
          "name": "",
          "type": "address"
        }
      ],
      "stateMutability": "view",
      "type": "function",
      "constant": true
    },
    {
      "inputs": [
        {
          "internalType": "address",
          "name": "",
          "type": "address"
        }
      ],
      "name": "playerScores",
      "outputs": [
        {
          "internalType": "uint256",
          "name": "playerId",
          "type": "uint256"
        },
        {
          "internalType": "string",
          "name": "walletAddress",
          "type": "string"
        },
        {
          "internalType": "uint256",
          "name": "coinAmount",
          "type": "uint256"
        },
        {
          "internalType": "uint256",
          "name": "characterIndex",
          "type": "uint256"
        },
        {
          "internalType": "uint256",
          "name": "exchangedAmount",
          "type": "uint256"
        },
        {
          "internalType": "bool",
          "name": "exists",
          "type": "bool"
        }
      ],
      "stateMutability": "view",
      "type": "function",
      "constant": true
    },
    {
      "inputs": [],
      "name": "hello",
      "outputs": [
        {
          "internalType": "string",
          "name": "",
          "type": "string"
        }
      ],
      "stateMutability": "pure",
      "type": "function",
      "constant": true
    },
    {
      "inputs": [
        {
          "internalType": "uint256",
          "name": "_price",
          "type": "uint256"
        }
      ],
      "name": "setPrice",
      "outputs": [],
      "stateMutability": "nonpayable",
      "type": "function"
    },
    {
      "inputs": [
        {
          "internalType": "uint256",
          "name": "playerId",
          "type": "uint256"
        },
        {
          "internalType": "string",
          "name": "add",
          "type": "string"
        },
        {
          "internalType": "uint256",
          "name": "coinAmount",
          "type": "uint256"
        },
        {
          "internalType": "uint256",
          "name": "characterIndex",
          "type": "uint256"
        }
      ],
      "name": "Sendscore",
      "outputs": [],
      "stateMutability": "nonpayable",
      "type": "function"
    },
    {
      "inputs": [
        {
          "internalType": "uint256",
          "name": "_newCoinAmount",
          "type": "uint256"
        },
        {
          "internalType": "uint256",
          "name": "_newCharacterIndex",
          "type": "uint256"
        },
        {
          "internalType": "uint256",
          "name": "_exchangedAmount",
          "type": "uint256"
        }
      ],
      "name": "updateScoreByPlayerId",
      "outputs": [],
      "stateMutability": "nonpayable",
      "type": "function"
    },
    {
      "inputs": [
        {
          "internalType": "uint256",
          "name": "_amount",
          "type": "uint256"
        }
      ],
      "name": "setExchangeAmount",
      "outputs": [],
      "stateMutability": "nonpayable",
      "type": "function"
    },
    {
      "inputs": [],
      "name": "getAllData",
      "outputs": [
        {
          "internalType": "uint256",
          "name": "",
          "type": "uint256"
        },
        {
          "components": [
            {
              "internalType": "uint256",
              "name": "playerId",
              "type": "uint256"
            },
            {
              "internalType": "string",
              "name": "walletAddress",
              "type": "string"
            },
            {
              "internalType": "uint256",
              "name": "coinAmount",
              "type": "uint256"
            },
            {
              "internalType": "uint256",
              "name": "characterIndex",
              "type": "uint256"
            },
            {
              "internalType": "uint256",
              "name": "exchangedAmount",
              "type": "uint256"
            },
            {
              "internalType": "bool",
              "name": "exists",
              "type": "bool"
            }
          ],
          "internalType": "struct TestContract.Score[]",
          "name": "",
          "type": "tuple[]"
        }
      ],
      "stateMutability": "view",
      "type": "function",
      "constant": true
    },
    {
      "inputs": [
        {
          "internalType": "address",
          "name": "_wallet",
          "type": "address"
        }
      ],
      "name": "getPlayerData",
      "outputs": [
        {
          "internalType": "uint256",
          "name": "playerId",
          "type": "uint256"
        },
        {
          "internalType": "string",
          "name": "walletAddress",
          "type": "string"
        },
        {
          "internalType": "uint256",
          "name": "coinAmount",
          "type": "uint256"
        },
        {
          "internalType": "uint256",
          "name": "characterIndex",
          "type": "uint256"
        },
        {
          "internalType": "uint256",
          "name": "exchangedAmount",
          "type": "uint256"
        },
        {
          "internalType": "bool",
          "name": "exists",
          "type": "bool"
        }
      ],
      "stateMutability": "view",
      "type": "function",
      "constant": true
    }
  ],
  "bytecode": "0x608060405234801561001057600080fd5b50610c4a806100206000396000f3fe608060405234801561001057600080fd5b506004361061009e5760003560e01c80635a08e604116100665780635a08e6041461015057806362550ae11461017357806391b7f5ed14610186578063ab88c36214610199578063ff186b2e146101ac57600080fd5b806315c6aee2146100a357806319ff1d21146100d35780632788dc3a146101005780632aa531d9146101155780632d10fa281461013a575b600080fd5b6100b66100b13660046107bc565b6101c3565b6040516001600160a01b0390911681526020015b60405180910390f35b604080518082018252600b81526a12195b1b1bc815dbdc9b1960aa1b602082015290516100ca919061081b565b61011361010e36600461084b565b6101ed565b005b610128610123366004610916565b610321565b6040516100ca9695949392919061093f565b610142610468565b6040516100ca92919061097f565b61011361015e3660046107bc565b33600090815260016020526040902060040155565b610128610181366004610916565b610670565b6101136101943660046107bc565b600055565b6101136101a7366004610a27565b610730565b6101b560005481565b6040519081526020016100ca565b600281815481106101d357600080fd5b6000918252602090912001546001600160a01b0316905081565b3360009081526001602052604090206005015460ff1661024a57600280546001810182556000919091527f405787fa12a823e0f2b7631cc41b3ba8828b3321ca811111fa75cd3aa3bb5ace0180546001600160a01b031916331790555b6040805160c081018252858152602080820186815282840186905260608301859052600060808401819052600160a0850181905233825292839052939093208251815592519192839290918201906102a29082610adc565b506040828101516002830155606083015160038301556080830151600483015560a0909201516005909101805460ff1916911515919091179055517fbc8d761523f80a4ea90b3165229c75f7036289354184345c90153184eaccb0c9906103129033908890889088908890610b9c565b60405180910390a15050505050565b60006060600080600080600060016000896001600160a01b03166001600160a01b031681526020019081526020016000206040518060c00160405290816000820154815260200160018201805461037790610a53565b80601f01602080910402602001604051908101604052809291908181526020018280546103a390610a53565b80156103f05780601f106103c5576101008083540402835291602001916103f0565b820191906000526020600020905b8154815290600101906020018083116103d357829003601f168201915b505050505081526020016002820154815260200160038201548152602001600482015481526020016005820160009054906101000a900460ff1615151515815250509050806000015181602001518260400151836060015184608001518560a001519650965096509650965096505091939550919395565b60006060600060028054905067ffffffffffffffff81111561048c5761048c610835565b6040519080825280602002602001820160405280156104f857816020015b6104e56040518060c0016040528060008152602001606081526020016000815260200160008152602001600081526020016000151581525090565b8152602001906001900390816104aa5790505b50905060005b60025481101561066457600160006002838154811061051f5761051f610bd7565b9060005260206000200160009054906101000a90046001600160a01b03166001600160a01b03166001600160a01b031681526020019081526020016000206040518060c00160405290816000820154815260200160018201805461058290610a53565b80601f01602080910402602001604051908101604052809291908181526020018280546105ae90610a53565b80156105fb5780601f106105d0576101008083540402835291602001916105fb565b820191906000526020600020905b8154815290600101906020018083116105de57829003601f168201915b505050918352505060028201546020820152600382015460408201526004820154606082015260059091015460ff161515608090910152825183908390811061064657610646610bd7565b6020026020010181905250808061065c90610bed565b9150506104fe565b50600054939092509050565b60016020819052600091825260409091208054918101805461069190610a53565b80601f01602080910402602001604051908101604052809291908181526020018280546106bd90610a53565b801561070a5780601f106106df5761010080835404028352916020019161070a565b820191906000526020600020905b8154815290600101906020018083116106ed57829003601f168201915b505050506002830154600384015460048501546005909501549394919390925060ff1686565b336000908152600160205260409020600581015460ff166107975760405162461bcd60e51b815260206004820152601f60248201527f4e6f2073636f726520666f756e6420666f722074686973206164647265737300604482015260640160405180910390fd5b600281018490556003810183905560001982146107b657600481018290555b50505050565b6000602082840312156107ce57600080fd5b5035919050565b6000815180845260005b818110156107fb576020818501810151868301820152016107df565b506000602082860101526020601f19601f83011685010191505092915050565b60208152600061082e60208301846107d5565b9392505050565b634e487b7160e01b600052604160045260246000fd5b6000806000806080858703121561086157600080fd5b84359350602085013567ffffffffffffffff8082111561088057600080fd5b818701915087601f83011261089457600080fd5b8135818111156108a6576108a6610835565b604051601f8201601f19908116603f011681019083821181831017156108ce576108ce610835565b816040528281528a60208487010111156108e757600080fd5b826020860160208301376000928101602001929092525095989597505050506040840135936060013592915050565b60006020828403121561092857600080fd5b81356001600160a01b038116811461082e57600080fd5b86815260c06020820152600061095860c08301886107d5565b905085604083015284606083015283608083015282151560a0830152979650505050505050565b6000604080830185845260208281860152818651808452606093508387019150838160051b88010183890160005b83811015610a1757605f198a8403018552815160c0815185528782015181898701526109db828701826107d5565b838c0151878d01528a8401518b8801526080808501519088015260a09384015115159390960192909252505093850193908501906001016109ad565b50909a9950505050505050505050565b600080600060608486031215610a3c57600080fd5b505081359360208301359350604090920135919050565b600181811c90821680610a6757607f821691505b602082108103610a8757634e487b7160e01b600052602260045260246000fd5b50919050565b601f821115610ad757600081815260208120601f850160051c81016020861015610ab45750805b601f850160051c820191505b81811015610ad357828155600101610ac0565b5050505b505050565b815167ffffffffffffffff811115610af657610af6610835565b610b0a81610b048454610a53565b84610a8d565b602080601f831160018114610b3f5760008415610b275750858301515b600019600386901b1c1916600185901b178555610ad3565b600085815260208120601f198616915b82811015610b6e57888601518255948401946001909101908401610b4f565b5085821015610b8c5787850151600019600388901b60f8161c191681555b5050505050600190811b01905550565b60018060a01b038616815284602082015260a060408201526000610bc360a08301866107d5565b606083019490945250608001529392505050565b634e487b7160e01b600052603260045260246000fd5b600060018201610c0d57634e487b7160e01b600052601160045260246000fd5b506001019056fea26469706673582212208741ee7cf46baf886113a7784e767b974a0a3741a33edb9861d315155bc6d04a64736f6c63430008130033",
  "immutableReferences": {},
  "source": "// contracts/TestContract.sol\r\n// SPDX-License-Identifier: MIT\r\npragma solidity ^0.8.19;\r\n\r\ncontract TestContract {\r\n    uint public ethPrice;\r\n\r\n    struct Score {\r\n        uint playerId;\r\n        string walletAddress;\r\n        uint coinAmount;\r\n        uint characterIndex;\r\n        uint exchangedAmount;\r\n        bool exists;\r\n    }\r\n\r\n    mapping(address => Score) public playerScores;\r\n    address[] public playerAddresses;\r\n\r\n    function hello() public pure returns (string memory) {\r\n        return \"Hello World\";\r\n    }\r\n\r\n    function setPrice(uint _price) public {\r\n        ethPrice = _price;\r\n    }\r\n\r\n    event ScoreSubmitted(address sender, uint playerId, string wallet, uint coin, uint character);\r\n\r\n    function Sendscore(uint playerId, string memory add, uint coinAmount, uint characterIndex) public {\r\n        \r\n            if( !playerScores[msg.sender].exists ) {\r\n                playerAddresses.push(msg.sender);\r\n            }\r\n\r\n            Score memory newScore = Score(playerId, add, coinAmount, characterIndex, 0, true);\r\n            playerScores[msg.sender] = newScore;\r\n\r\n            emit ScoreSubmitted(msg.sender, playerId, add, coinAmount, characterIndex);\r\n    }\r\n\r\n    function updateScoreByPlayerId(\r\n        uint _newCoinAmount,\r\n        uint _newCharacterIndex,\r\n        uint _exchangedAmount\r\n    ) public {\r\n        // Access the player's score\r\n        Score storage score = playerScores[msg.sender];\r\n\r\n        // Optional: require the record to exist — this assumes the 'exists' flag\r\n        require(score.exists, \"No score found for this address\" );\r\n\r\n        // Update values\r\n        score.coinAmount = _newCoinAmount;\r\n        score.characterIndex = _newCharacterIndex;\r\n\r\n        // Only update if _exchangedAmount is not sentinel\r\n        if (_exchangedAmount != type(uint).max) {\r\n            score.exchangedAmount = _exchangedAmount;\r\n        }\r\n        \r\n    }\r\n\r\n    function setExchangeAmount(uint _amount) public {\r\n        Score storage score = playerScores[msg.sender];\r\n        // require(score.exists, \"Player does not exist\");\r\n        score.exchangedAmount = _amount;\r\n    }\r\n\r\n    function getAllData() public view returns (\r\n        uint,\r\n        Score[] memory\r\n    ) {\r\n        Score[] memory scores = new Score[](playerAddresses.length);\r\n        for (uint i = 0; i < playerAddresses.length; i++) {\r\n            scores[i] = playerScores[playerAddresses[i]];\r\n        }\r\n        return (ethPrice, scores);\r\n    }\r\n\r\n    function getPlayerData(address _wallet) public view returns (\r\n        uint playerId,\r\n        string memory walletAddress,\r\n        uint coinAmount,\r\n        uint characterIndex,\r\n        uint exchangedAmount,\r\n        bool exists\r\n    ) {\r\n        Score memory player = playerScores[_wallet];\r\n        return (\r\n            player.playerId,\r\n            player.walletAddress,\r\n            player.coinAmount,\r\n            player.characterIndex,\r\n            player.exchangedAmount,\r\n            player.exists\r\n        );\r\n    }\r\n\r\n}",
  "sourcePath": "D:\\myDapp\\contracts\\TestContract.sol",
  "compiler": {
    "name": "solc",
    "version": "0.8.19+commit.7dd6d404.Emscripten.clang"
  },
  "schemaVersion": "3.4.16",
  "updatedAt": "2025-06-11T05:28:19.833Z",
  "networkType": "ethereum",
  "devdoc": {
    "kind": "dev",
    "methods": {},
    "version": 1
  },
  "userdoc": {
    "kind": "user",
    "methods": {},
    "version": 1
  }
}